{
  "_format": "hh-sol-artifact-1",
  "contractName": "BloodChain",
  "sourceName": "contracts/BloodChain.sol",
  "abi": [
    {
      "anonymous": false,
      "inputs": [
        {
          "indexed": true,
          "internalType": "address",
          "name": "user",
          "type": "address"
        },
        {
          "indexed": false,
          "internalType": "string",
          "name": "ipfsCid",
          "type": "string"
        },
        {
          "indexed": false,
          "internalType": "uint64",
          "name": "date",
          "type": "uint64"
        },
        {
          "indexed": false,
          "internalType": "bytes32",
          "name": "locationHash",
          "type": "bytes32"
        },
        {
          "indexed": false,
          "internalType": "bytes32",
          "name": "hospitalHash",
          "type": "bytes32"
        },
        {
          "indexed": false,
          "internalType": "uint8",
          "name": "donationType",
          "type": "uint8"
        },
        {
          "indexed": false,
          "internalType": "uint32",
          "name": "volume",
          "type": "uint32"
        },
        {
          "indexed": false,
          "internalType": "euint32",
          "name": "encVolume",
          "type": "bytes32"
        }
      ],
      "name": "DonationRecorded",
      "type": "event"
    },
    {
      "inputs": [
        {
          "internalType": "address",
          "name": "user",
          "type": "address"
        }
      ],
      "name": "donationCountPublic",
      "outputs": [
        {
          "internalType": "uint32",
          "name": "",
          "type": "uint32"
        }
      ],
      "stateMutability": "view",
      "type": "function"
    },
    {
      "inputs": [
        {
          "internalType": "address",
          "name": "user",
          "type": "address"
        }
      ],
      "name": "getDonationCount",
      "outputs": [
        {
          "internalType": "euint32",
          "name": "",
          "type": "bytes32"
        }
      ],
      "stateMutability": "view",
      "type": "function"
    },
    {
      "inputs": [],
      "name": "getMyDonationCount",
      "outputs": [
        {
          "internalType": "euint32",
          "name": "",
          "type": "bytes32"
        }
      ],
      "stateMutability": "view",
      "type": "function"
    },
    {
      "inputs": [],
      "name": "getMyLastVolume",
      "outputs": [
        {
          "internalType": "euint32",
          "name": "",
          "type": "bytes32"
        }
      ],
      "stateMutability": "view",
      "type": "function"
    },
    {
      "inputs": [],
      "name": "protocolId",
      "outputs": [
        {
          "internalType": "uint256",
          "name": "",
          "type": "uint256"
        }
      ],
      "stateMutability": "pure",
      "type": "function"
    },
    {
      "inputs": [
        {
          "internalType": "externalEuint32",
          "name": "inputVolume",
          "type": "bytes32"
        },
        {
          "internalType": "bytes",
          "name": "inputProof",
          "type": "bytes"
        },
        {
          "internalType": "string",
          "name": "ipfsCid",
          "type": "string"
        },
        {
          "internalType": "uint64",
          "name": "date",
          "type": "uint64"
        },
        {
          "internalType": "bytes32",
          "name": "locationHash",
          "type": "bytes32"
        },
        {
          "internalType": "bytes32",
          "name": "hospitalHash",
          "type": "bytes32"
        },
        {
          "internalType": "uint8",
          "name": "donationType",
          "type": "uint8"
        },
        {
          "internalType": "uint32",
          "name": "publicVolume",
          "type": "uint32"
        }
      ],
      "name": "recordDonation",
      "outputs": [],
      "stateMutability": "nonpayable",
      "type": "function"
    }
  ],
  "bytecode": "0x608060405234801561000f575f5ffd5b5061018a6100ae604080516080810182525f808252602082018190529181018290526060810191909152506040805160808101825273687820221192c5b662b25367f70076a37bc79b6c815273848b0066793bcc60346da1f49049357399b8d595602082015273a02cda4ca3a71d7c46997716f4283aa851c2881291810191909152731364cbbf2cdf5032c47d8226a6f6fbd2afcdacac606082015290565b80517f9e7b61f58c47dc699ac88507c4f5bb9f121c03808c5676a8078fe583e464970080546001600160a01b03199081166001600160a01b039384161790915560208301517f9e7b61f58c47dc699ac88507c4f5bb9f121c03808c5676a8078fe583e46497018054831691841691909117905560408301517f9e7b61f58c47dc699ac88507c4f5bb9f121c03808c5676a8078fe583e46497028054831691841691909117905560608301517f9e7b61f58c47dc699ac88507c4f5bb9f121c03808c5676a8078fe583e46497038054909216921691909117905550565b6108a6806101975f395ff3fe608060405234801561000f575f5ffd5b506004361061006f575f3560e01c8063c522bcab1161004d578063c522bcab146100ee578063da1f12ab14610116578063e00064501461011e575f5ffd5b8063566d418214610073578063b7cfac5b14610096578063ba194ddd146100d9575b5f5ffd5b335f908152602081905260409020545b6040519081526020015b60405180910390f35b6100c46100a4366004610628565b6001600160a01b03165f9081526002602052604090205463ffffffff1690565b60405163ffffffff909116815260200161008d565b6100ec6100e73660046106bb565b610132565b005b6100836100fc366004610628565b6001600160a01b03165f9081526020819052604090205490565b612711610083565b335f90815260016020526040902054610083565b335f908152602081905260408120549061014c6001610267565b90505f610159838361027f565b335f9081526020819052604090208190559050610175816102b4565b5061018081336102c3565b505f6101c18e8e8e8080601f0160208091040260200160405190810160405280939291908181526020018383808284375f920191909152506102d592505050565b335f90815260016020526040902081905590506101dd816102b4565b506101e881336102c3565b50335f8181526002602052604090819020805463ffffffff8082166001011663ffffffff19909116179055517f7aa904b69a578942a607fdedf49e2c1242361e70c3f3ca651beb063f426357489061024f908e908e908e908e908e908e908e908b90610784565b60405180910390a25050505050505050505050505050565b5f6102798263ffffffff1660046102e2565b92915050565b5f826102915761028e5f610267565b92505b816102a25761029f5f610267565b91505b6102ad83835f61039f565b9392505050565b5f6102bf823061047f565b5090565b5f6102ce838361047f565b5090919050565b5f6102ad83836004610508565b7f9e7b61f58c47dc699ac88507c4f5bb9f121c03808c5676a8078fe583e464970154604051639cd07acb60e01b81525f917f9e7b61f58c47dc699ac88507c4f5bb9f121c03808c5676a8078fe583e4649700916001600160a01b0390911690639cd07acb906103579087908790600401610814565b6020604051808303815f875af1158015610373573d5f5f3e3d5ffd5b505050506040513d601f19601f820116820180604052508101906103979190610828565b949350505050565b5f5f82156103b25750600160f81b6103b5565b505f5b5f7f9e7b61f58c47dc699ac88507c4f5bb9f121c03808c5676a8078fe583e4649700600181015460405163022f65e760e31b815260048101899052602481018890527fff00000000000000000000000000000000000000000000000000000000000000851660448201529192506001600160a01b03169063117b2f38906064016020604051808303815f875af1158015610451573d5f5f3e3d5ffd5b505050506040513d601f19601f820116820180604052508101906104759190610828565b9695505050505050565b5f7f9e7b61f58c47dc699ac88507c4f5bb9f121c03808c5676a8078fe583e46497008054604051635ca4b5b160e11b8152600481018690526001600160a01b03858116602483015292935091169063b9496b62906044015f604051808303815f87803b1580156104ed575f5ffd5b505af11580156104ff573d5f5f3e3d5ffd5b50505050505050565b7f9e7b61f58c47dc699ac88507c4f5bb9f121c03808c5676a8078fe583e46497015460405163196d0b9b60e01b81525f917f9e7b61f58c47dc699ac88507c4f5bb9f121c03808c5676a8078fe583e4649700916001600160a01b039091169063196d0b9b9061058190889033908990899060040161083f565b6020604051808303815f875af115801561059d573d5f5f3e3d5ffd5b505050506040513d601f19601f820116820180604052508101906105c19190610828565b8154604051630f8e573b60e21b8152600481018390523360248201529193506001600160a01b031690633e395cec906044015f604051808303815f87803b15801561060a575f5ffd5b505af115801561061c573d5f5f3e3d5ffd5b50505050509392505050565b5f60208284031215610638575f5ffd5b81356001600160a01b03811681146102ad575f5ffd5b5f5f83601f84011261065e575f5ffd5b50813567ffffffffffffffff811115610675575f5ffd5b60208301915083602082850101111561068c575f5ffd5b9250929050565b803560ff811681146106a3575f5ffd5b919050565b803563ffffffff811681146106a3575f5ffd5b5f5f5f5f5f5f5f5f5f5f6101008b8d0312156106d5575f5ffd5b8a35995060208b013567ffffffffffffffff8111156106f2575f5ffd5b6106fe8d828e0161064e565b909a5098505060408b013567ffffffffffffffff81111561071d575f5ffd5b6107298d828e0161064e565b90985096505060608b013567ffffffffffffffff81168114610749575f5ffd5b945060808b0135935060a08b0135925061076560c08c01610693565b915061077360e08c016106a8565b90509295989b9194979a5092959850565b60e081528760e082015287896101008301375f61010089830101525f610100601f19601f8b0116830101905067ffffffffffffffff8816602083015286604083015285606083015260ff8516608083015263ffffffff841660a08301528260c08301529998505050505050505050565b6054811061081057634e487b7160e01b5f52602160045260245ffd5b9052565b828152604081016102ad60208301846107f4565b5f60208284031215610838575f5ffd5b5051919050565b8481526001600160a01b0384166020820152608060408201525f8351806080840152806020860160a085015e5f60a0828501015260a0601f19601f83011684010191505061089060608301846107f4565b9594505050505056fea164736f6c634300081b000a",
  "linkReferences": {},
  "deployedLinkReferences": {}
}